{
  "contractName": "Faucet",
  "abi": [
    {
      "inputs": [],
      "name": "numOfFunders",
      "outputs": [
        {
          "internalType": "uint256",
          "name": "",
          "type": "uint256"
        }
      ],
      "stateMutability": "view",
      "type": "function"
    },
    {
      "inputs": [],
      "name": "owner",
      "outputs": [
        {
          "internalType": "address",
          "name": "",
          "type": "address"
        }
      ],
      "stateMutability": "view",
      "type": "function"
    },
    {
      "inputs": [],
      "name": "test5",
      "outputs": [
        {
          "internalType": "uint256",
          "name": "",
          "type": "uint256"
        }
      ],
      "stateMutability": "pure",
      "type": "function"
    },
    {
      "inputs": [],
      "name": "testNum",
      "outputs": [
        {
          "internalType": "uint256",
          "name": "",
          "type": "uint256"
        }
      ],
      "stateMutability": "view",
      "type": "function"
    },
    {
      "stateMutability": "payable",
      "type": "receive"
    },
    {
      "inputs": [],
      "name": "emitLog",
      "outputs": [
        {
          "internalType": "bytes32",
          "name": "",
          "type": "bytes32"
        }
      ],
      "stateMutability": "pure",
      "type": "function"
    },
    {
      "inputs": [],
      "name": "addFunds",
      "outputs": [],
      "stateMutability": "payable",
      "type": "function"
    },
    {
      "inputs": [],
      "name": "getAllFunders",
      "outputs": [
        {
          "internalType": "address[]",
          "name": "",
          "type": "address[]"
        }
      ],
      "stateMutability": "view",
      "type": "function"
    },
    {
      "inputs": [],
      "name": "test1",
      "outputs": [],
      "stateMutability": "nonpayable",
      "type": "function"
    },
    {
      "inputs": [],
      "name": "test2",
      "outputs": [],
      "stateMutability": "nonpayable",
      "type": "function"
    },
    {
      "inputs": [
        {
          "internalType": "uint256",
          "name": "withdrawAmount",
          "type": "uint256"
        }
      ],
      "name": "withdraw",
      "outputs": [],
      "stateMutability": "nonpayable",
      "type": "function"
    },
    {
      "inputs": [
        {
          "internalType": "uint8",
          "name": "index",
          "type": "uint8"
        }
      ],
      "name": "getFunderAtIndex",
      "outputs": [
        {
          "internalType": "address",
          "name": "",
          "type": "address"
        }
      ],
      "stateMutability": "view",
      "type": "function"
    }
  ],
  "bytecode": "0x608060405234801561001057600080fd5b50336000806101000a81548173ffffffffffffffffffffffffffffffffffffffff021916908373ffffffffffffffffffffffffffffffffffffffff1602179055506103e8600181905550610af3806100696000396000f3fe6080604052600436106100a05760003560e01c80636fbbb55d116100645780636fbbb55d1461016b5780638da5cb5b14610196578063a26759cb146101c1578063ae28f1ed146101cb578063af7f2c9b146101f6578063f42c13bf14610221576100a7565b80630a93cf33146100ac5780631ad7be82146100e95780632e1a7d4d1461011457806366e41cb71461013d5780636b59084d14610154576100a7565b366100a757005b600080fd5b3480156100b857600080fd5b506100d360048036038101906100ce9190610689565b61024c565b6040516100e091906106f7565b60405180910390f35b3480156100f557600080fd5b506100fe61028c565b60405161010b919061072b565b60405180910390f35b34801561012057600080fd5b5061013b60048036038101906101369190610772565b61029e565b005b34801561014957600080fd5b50610152610335565b005b34801561016057600080fd5b50610169610337565b005b34801561017757600080fd5b506101806103c7565b60405161018d919061085d565b60405180910390f35b3480156101a257600080fd5b506101ab6104c1565b6040516101b891906106f7565b60405180910390f35b6101c96104e5565b005b3480156101d757600080fd5b506101e061060e565b6040516101ed919061072b565b60405180910390f35b34801561020257600080fd5b5061020b610614565b604051610218919061072b565b60405180910390f35b34801561022d57600080fd5b5061023661061a565b6040516102439190610898565b60405180910390f35b6000600460008360ff16815260200190815260200160002060009054906101000a900473ffffffffffffffffffffffffffffffffffffffff169050919050565b6000610296610642565b506005905090565b8067016345785d8a00008111156102ea576040517f08c379a00000000000000000000000000000000000000000000000000000000081526004016102e190610936565b60405180910390fd5b3373ffffffffffffffffffffffffffffffffffffffff166108fc839081150290604051600060405180830381858888f19350505050158015610330573d6000803e3d6000fd5b505050565b565b60008054906101000a900473ffffffffffffffffffffffffffffffffffffffff1673ffffffffffffffffffffffffffffffffffffffff163373ffffffffffffffffffffffffffffffffffffffff16146103c5576040517f08c379a00000000000000000000000000000000000000000000000000000000081526004016103bc906109c8565b60405180910390fd5b565b6060600060025467ffffffffffffffff8111156103e7576103e66109e8565b5b6040519080825280602002602001820160405280156104155781602001602082028036833780820191505090505b50905060005b6002548110156104b9576004600082815260200190815260200160002060009054906101000a900473ffffffffffffffffffffffffffffffffffffffff1682828151811061046c5761046b610a17565b5b602002602001019073ffffffffffffffffffffffffffffffffffffffff16908173ffffffffffffffffffffffffffffffffffffffff168152505080806104b190610a75565b91505061041b565b508091505090565b60008054906101000a900473ffffffffffffffffffffffffffffffffffffffff1681565b60003390506104f2610642565b50600360008273ffffffffffffffffffffffffffffffffffffffff1673ffffffffffffffffffffffffffffffffffffffff16815260200190815260200160002060009054906101000a900460ff1661060b5760006002600081548092919061055990610a75565b9190505590506001600360008473ffffffffffffffffffffffffffffffffffffffff1673ffffffffffffffffffffffffffffffffffffffff16815260200190815260200160002060006101000a81548160ff021916908315150217905550816004600083815260200190815260200160002060006101000a81548173ffffffffffffffffffffffffffffffffffffffff021916908373ffffffffffffffffffffffffffffffffffffffff160217905550505b50565b60015481565b60025481565b60007f48656c6c6f20576f726c64000000000000000000000000000000000000000000905090565b60006064905090565b600080fd5b600060ff82169050919050565b61066681610650565b811461067157600080fd5b50565b6000813590506106838161065d565b92915050565b60006020828403121561069f5761069e61064b565b5b60006106ad84828501610674565b91505092915050565b600073ffffffffffffffffffffffffffffffffffffffff82169050919050565b60006106e1826106b6565b9050919050565b6106f1816106d6565b82525050565b600060208201905061070c60008301846106e8565b92915050565b6000819050919050565b61072581610712565b82525050565b6000602082019050610740600083018461071c565b92915050565b61074f81610712565b811461075a57600080fd5b50565b60008135905061076c81610746565b92915050565b6000602082840312156107885761078761064b565b5b60006107968482850161075d565b91505092915050565b600081519050919050565b600082825260208201905092915050565b6000819050602082019050919050565b6107d4816106d6565b82525050565b60006107e683836107cb565b60208301905092915050565b6000602082019050919050565b600061080a8261079f565b61081481856107aa565b935061081f836107bb565b8060005b8381101561085057815161083788826107da565b9750610842836107f2565b925050600181019050610823565b5085935050505092915050565b6000602082019050818103600083015261087781846107ff565b905092915050565b6000819050919050565b6108928161087f565b82525050565b60006020820190506108ad6000830184610889565b92915050565b600082825260208201905092915050565b7f43616e6e6f74207769746864726177206d6f7265207468616e20302e3120657460008201527f6865726e6574207472616e73616374696f6e0000000000000000000000000000602082015250565b60006109206032836108b3565b915061092b826108c4565b604082019050919050565b6000602082019050818103600083015261094f81610913565b9050919050565b7f6f6e6c79206f776e65722063616e2063616c6c20746869732066756e6374696f60008201527f6e00000000000000000000000000000000000000000000000000000000000000602082015250565b60006109b26021836108b3565b91506109bd82610956565b604082019050919050565b600060208201905081810360008301526109e1816109a5565b9050919050565b7f4e487b7100000000000000000000000000000000000000000000000000000000600052604160045260246000fd5b7f4e487b7100000000000000000000000000000000000000000000000000000000600052603260045260246000fd5b7f4e487b7100000000000000000000000000000000000000000000000000000000600052601160045260246000fd5b6000610a8082610712565b91507fffffffffffffffffffffffffffffffffffffffffffffffffffffffffffffffff8203610ab257610ab1610a46565b5b60018201905091905056fea2646970667358221220ab08e39da0dccf952fb3f98791e96caa70f9234ca1149fe3c33c4d5908272fcf64736f6c63430008130033",
  "immutableReferences": {},
  "source": "// SPDX-License-Identifier: MIT\npragma solidity >=0.4.22 <0.9.0;\nimport \"./Owned.sol\";\nimport \"./Logger.sol\";\nimport \"./IFaucet.sol\";\n\n\ncontract Faucet is Owned, Logger,IFaucet {\n    //this is a special function\n    //itS called when u make a tx that doesnot specify\n    //funstion name to call\n\n    //external function are part of the contract interface\n    //whic means they can be called via contracts and other txs\n    //address[] public funders;\n    uint public numOfFunders;\n\n    mapping(address => bool) private funders;\n    mapping(uint => address) private lutFunders;\n\n    modifier limitWithdraw(uint withdrawAmount) {\n        require(\n            withdrawAmount <= 100000000000000000,\n            \"Cannot withdraw more than 0.1 ethernet transaction\"\n        );\n        _;\n    }\n\n    receive() external payable {}\n\n    function emitLog() public override pure returns (bytes32) {\n        return \"Hello World\";\n    }\n\n    // function transferOwnership(address newOwner) external onlyOwner{\n    //     owner= newOwner;\n    // }\n\n    function addFunds() override external payable {\n        //uint index = numOfFunders++; //number\n        address funder = msg.sender;\n        test3();\n        if (!funders[funder]) {\n            uint index = numOfFunders++;\n            funders[funder] = true;\n            lutFunders[index] = funder;\n        }\n    }\n\n    function getAllFunders() external view returns (address[] memory) {\n        address[] memory _funders = new address[](numOfFunders);\n\n        for (uint i = 0; i < numOfFunders; i++) {\n            _funders[i] = lutFunders[i];\n        }\n        return _funders;\n    }\n\n    function test1() external onlyOwner {\n        //some managing stuff that only admin should have accessto\n    }\n\n    function test2() external {\n        //some managing stuff that only admin should have accessto\n    }\n\n    function withdraw(uint withdrawAmount) override external limitWithdraw(withdrawAmount) {\n        payable(msg.sender).transfer(withdrawAmount);\n    }\n\n    function getFunderAtIndex(uint8 index) external view returns (address) {\n        return lutFunders[index];\n    }\n\n    //function jsustTesting() external pure{}\n    // instance.addFunds({from: accounts[0], value: \"2})\n\n    //const instance = await Faucet.deployed();\n    //instance.addFunds({from: accounts[1], value:\"20000000\"})\n    //instance.addFunds({from: accounts[0], value:\"20000000\"})\n\n    //instance.withdraw(\"500000000000000000\", {from:accounts[1]})\n    //instance.getFunderAtIndex(0)\n    //instance.getAllFunders()\n    //instance.emitLog()\n}\n",
  "sourcePath": "/Users/hirushafernando/Developer/HTML-code/BLOCKCHAIN/faucet/contracts/FaucetContract.sol",
  "compiler": {
    "name": "solc",
    "version": "0.8.19+commit.7dd6d404.Emscripten.clang"
  },
  "schemaVersion": "3.4.13",
  "updatedAt": "2023-05-05T17:08:10.977Z",
  "devdoc": {
    "kind": "dev",
    "methods": {},
    "version": 1
  },
  "userdoc": {
    "kind": "user",
    "methods": {},
    "version": 1
  }
}