{
  "contractName": "Storage",
  "abi": [
    {
      "inputs": [],
      "stateMutability": "nonpayable",
      "type": "constructor"
    },
    {
      "inputs": [],
      "name": "a",
      "outputs": [
        {
          "internalType": "uint8",
          "name": "",
          "type": "uint8"
        }
      ],
      "stateMutability": "view",
      "type": "function"
    },
    {
      "inputs": [],
      "name": "b",
      "outputs": [
        {
          "internalType": "uint16",
          "name": "",
          "type": "uint16"
        }
      ],
      "stateMutability": "view",
      "type": "function"
    },
    {
      "inputs": [],
      "name": "c",
      "outputs": [
        {
          "internalType": "address",
          "name": "",
          "type": "address"
        }
      ],
      "stateMutability": "view",
      "type": "function"
    },
    {
      "inputs": [
        {
          "internalType": "uint256",
          "name": "",
          "type": "uint256"
        }
      ],
      "name": "cc",
      "outputs": [
        {
          "internalType": "uint256",
          "name": "",
          "type": "uint256"
        }
      ],
      "stateMutability": "view",
      "type": "function"
    },
    {
      "inputs": [],
      "name": "e",
      "outputs": [
        {
          "internalType": "uint64",
          "name": "",
          "type": "uint64"
        }
      ],
      "stateMutability": "view",
      "type": "function"
    },
    {
      "inputs": [],
      "name": "f",
      "outputs": [
        {
          "internalType": "uint256",
          "name": "",
          "type": "uint256"
        }
      ],
      "stateMutability": "view",
      "type": "function"
    },
    {
      "inputs": [
        {
          "internalType": "uint256",
          "name": "",
          "type": "uint256"
        }
      ],
      "name": "values",
      "outputs": [
        {
          "internalType": "uint256",
          "name": "",
          "type": "uint256"
        }
      ],
      "stateMutability": "view",
      "type": "function"
    },
    {
      "inputs": [
        {
          "internalType": "address",
          "name": "",
          "type": "address"
        }
      ],
      "name": "values1",
      "outputs": [
        {
          "internalType": "uint256",
          "name": "",
          "type": "uint256"
        }
      ],
      "stateMutability": "view",
      "type": "function"
    }
  ],
  "bytecode": "0x60806040526007600260006101000a81548160ff021916908360ff1602179055506007600260016101000a81548161ffff021916908361ffff16021790555071012345678901234567890123456789012345600260036101000a81548173ffffffffffffffffffffffffffffffffffffffff021916908373ffffffffffffffffffffffffffffffffffffffff1602179055506001600260176101000a81548160ff0219169083151502179055506007600260186101000a81548167ffffffffffffffff021916908367ffffffffffffffff16021790555060c86004553480156100e757600080fd5b5060036001908060018154018082558091505060019003906000526020600020016000909190919091505560046000806002815260200190815260200160002081905550600e600080600381526020019081526020016000208190555060646001600073fadc6fcf5d78e92b72015a01fe4bc9aa6b38aa1673ffffffffffffffffffffffffffffffffffffffff1673ffffffffffffffffffffffffffffffffffffffff1681526020019081526020016000208190555061049e806101ac6000396000f3fe608060405234801561001057600080fd5b50600436106100885760003560e01c8063c3da42b81161005b578063c3da42b814610117578063eb366c1314610135578063f819b89314610165578063ffae15ba1461019557610088565b80630dbe671f1461008d57806326121ff0146100ab5780634df7e3d0146100c95780635e383d21146100e7575b600080fd5b6100956101b3565b6040516100a29190610290565b60405180910390f35b6100b36101c6565b6040516100c091906102c4565b60405180910390f35b6100d16101cc565b6040516100de91906102fc565b60405180910390f35b61010160048036038101906100fc9190610348565b6101e0565b60405161010e91906102c4565b60405180910390f35b61011f6101f8565b60405161012c91906103b6565b60405180910390f35b61014f600480360381019061014a9190610348565b61021e565b60405161015c91906102c4565b60405180910390f35b61017f600480360381019061017a91906103fd565b610242565b60405161018c91906102c4565b60405180910390f35b61019d61025a565b6040516101aa919061044d565b60405180910390f35b600260009054906101000a900460ff1681565b60045481565b600260019054906101000a900461ffff1681565b60006020528060005260406000206000915090505481565b600260039054906101000a900473ffffffffffffffffffffffffffffffffffffffff1681565b6003818154811061022e57600080fd5b906000526020600020016000915090505481565b60016020528060005260406000206000915090505481565b600260189054906101000a900467ffffffffffffffff1681565b600060ff82169050919050565b61028a81610274565b82525050565b60006020820190506102a56000830184610281565b92915050565b6000819050919050565b6102be816102ab565b82525050565b60006020820190506102d960008301846102b5565b92915050565b600061ffff82169050919050565b6102f6816102df565b82525050565b600060208201905061031160008301846102ed565b92915050565b600080fd5b610325816102ab565b811461033057600080fd5b50565b6000813590506103428161031c565b92915050565b60006020828403121561035e5761035d610317565b5b600061036c84828501610333565b91505092915050565b600073ffffffffffffffffffffffffffffffffffffffff82169050919050565b60006103a082610375565b9050919050565b6103b081610395565b82525050565b60006020820190506103cb60008301846103a7565b92915050565b6103da81610395565b81146103e557600080fd5b50565b6000813590506103f7816103d1565b92915050565b60006020828403121561041357610412610317565b5b6000610421848285016103e8565b91505092915050565b600067ffffffffffffffff82169050919050565b6104478161042a565b82525050565b6000602082019050610462600083018461043e565b9291505056fea2646970667358221220ae13ef95c2a914b59ef373275ae4591a8c3c89ab453c880daf495af42fc5925764736f6c63430008130033",
  "immutableReferences": {},
  "source": "// SPDX-License-Identifier: MIT\npragma solidity >=0.4.22 <0.9.0;\n\n\ncontract Storage {\n    mapping(uint => uint) public values;//slot 0\n    mapping(address => uint) public values1;//slot 0\n    //keccak256(key . slot)\n\n    uint8 public a = 7;\n    uint16 public b = 7;\n    address public c = address(0x12345678901234567890123456789012345);\n    bool d = true;\n    uint64 public e = 7;\n\n    uint[] public cc;\n\n    uint public f = 200;\n\n    constructor(){\n\n        cc.push(1);\n        values[2] = 4;\n        values[3] = 14;\n\n        values1[0xFaDc6FCf5d78E92B72015a01fe4bC9aA6b38aA16] = 100;\n\n    }\n\n\n}\n\n// 0x0000000000000000000000000000000000000000000000000000000000000000\n// 0x00000000000000000000000000000000000000000000000000000000000000020000000000000000000000000000000000000000000000000000000000000000",
  "sourcePath": "/Users/hirushafernando/Developer/HTML-code/BLOCKCHAIN/faucet/contracts/Storage.sol",
  "compiler": {
    "name": "solc",
    "version": "0.8.19+commit.7dd6d404.Emscripten.clang"
  },
  "schemaVersion": "3.4.13",
  "updatedAt": "2023-05-05T17:08:10.979Z",
  "devdoc": {
    "kind": "dev",
    "methods": {},
    "version": 1
  },
  "userdoc": {
    "kind": "user",
    "methods": {},
    "version": 1
  }
}